:020000040000fa
:080000000002040000000000f2
:020000040000fa
:04000800c80200002a
:020000040000fa
:04000c00c802000026
:020000040000fa
:04001000c802000022
:020000040000fa
:04001400c80200001e
:020000040000fa
:04001800c80200001a
:020000040000fa
:04001c00c802000016
:020000040000fa
:04002000c802000012
:020000040000fa
:04002400c80200000e
:020000040000fa
:04002800c80200000a
:020000040000fa
:04002c00c802000006
:020000040000fa
:04003000c802000002
:020000040000fa
:04003400c8020000fe
:020000040000fa
:04003800c8020000fa
:020000040000fa
:04003c00c8020000f6
:020000040000fa
:04004000c8020000f2
:020000040000fa
:04004400c8020000ee
:020000040000fa
:04004800c8020000ea
:020000040000fa
:04004c00c8020000e6
:020000040000fa
:04005000c8020000e2
:020000040000fa
:04005400c8020000de
:020000040000fa
:04005800c8020000da
:020000040000fa
:04005c00c8020000d6
:020000040000fa
:04006000c8020000d2
:020000040000fa
:04006400c8020000ce
:020000040000fa
:04006800c8020000ca
:020000040000fa
:04006c00c8020000c6
:020000040000fa
:04007000c8020000c2
:020000040000fa
:04007400c8020000be
:020000040000fa
:04007800c8020000ba
:020000040000fa
:04007c00c8020000b6
:020000040000fa
:04008000c8020000b2
:020000040000fa
:04008400c8020000ae
:020000040000fa
:04008800c8020000aa
:020000040000fa
:04008c00c8020000a6
:020000040000fa
:04009000c8020000a2
:020000040000fa
:04009400c80200009e
:020000040000fa
:04009800c80200009a
:020000040000fa
:04009c00c802000096
:020000040000fa
:0400a000c802000092
:020000040000fa
:0400a400c80200008e
:020000040000fa
:0400a800c80200008a
:020000040000fa
:0400ac00c802000086
:020000040000fa
:0400b000c802000082
:020000040000fa
:0400b400c80200007e
:020000040000fa
:0400b800c80200007a
:020000040000fa
:0400bc00c802000076
:020000040000fa
:0400c000c802000072
:020000040000fa
:0400c400c80200006e
:020000040000fa
:0400c800c80200006a
:020000040000fa
:0400cc00c802000066
:020000040000fa
:0400d000c802000062
:020000040000fa
:0400d400c80200005e
:020000040000fa
:0400d800c80200005a
:020000040000fa
:0400dc00c802000056
:020000040000fa
:0400e000c802000052
:020000040000fa
:0400e400c80200004e
:020000040000fa
:0400e800c80200004a
:020000040000fa
:0400ec00c802000046
:020000040000fa
:0400f000c802000042
:020000040000fa
:0400f400c80200003e
:020000040000fa
:0400f800c80200003a
:020000040000fa
:0400fc00c802000036
:020000040000fa
:04010000c802000031
:020000040000fa
:04010400c80200002d
:020000040000fa
:04010800c802000029
:020000040000fa
:04010c00c802000025
:020000040000fa
:04011000c802000021
:020000040000fa
:04011400c80200001d
:020000040000fa
:04011800c802000019
:020000040000fa
:04011c00c802000015
:020000040000fa
:04012000c802000011
:020000040000fa
:04012400c80200000d
:020000040000fa
:04012800c802000009
:020000040000fa
:04012c00c802000005
:020000040000fa
:04013000c802000001
:020000040000fa
:04013400c8020000fd
:020000040000fa
:04013800c8020000f9
:020000040000fa
:04013c00c8020000f5
:020000040000fa
:04014000c8020000f1
:020000040000fa
:04014400c8020000ed
:020000040000fa
:04014800c8020000e9
:020000040000fa
:04014c00c8020000e5
:020000040000fa
:04015000c8020000e1
:020000040000fa
:04015400c8020000dd
:020000040000fa
:04015800c8020000d9
:020000040000fa
:04015c00c8020000d5
:020000040000fa
:04016000c8020000d1
:020000040000fa
:04016400c8020000cd
:020000040000fa
:04020800c802000028
:020000040000fa
:04020c00c802000024
:020000040000fa
:04021000c802000020
:020000040000fa
:04021400c80200001c
:020000040000fa
:04021800c802000018
:020000040000fa
:04021c00c802000014
:020000040000fa
:04022000c802000010
:020000040000fa
:04022400c80200000c
:020000040000fa
:04022800c802000008
:020000040000fa
:04022c00c802000004
:020000040000fa
:04023000c802000000
:020000040000fa
:04023400c8020000fc
:020000040000fa
:04023800c8020000f8
:020000040000fa
:04023c00c8020000f4
:020000040000fa
:04024000c8020000f0
:020000040000fa
:04024400c8020000ec
:020000040000fa
:04024800c8020000e8
:020000040000fa
:04024c00c8020000e4
:020000040000fa
:04025000c8020000e0
:020000040000fa
:04025400c8020000dc
:020000040000fa
:04025800c8020000d8
:020000040000fa
:04025c00c8020000d4
:020000040000fa
:04026000c8020000d0
:020000040000fa
:04026400c8020000cc
:020000040000fa
:04026800c8020000c8
:020000040000fa
:04026c00c8020000c4
:020000040000fa
:04027000c8020000c0
:020000040000fa
:04027400c8020000bc
:020000040000fa
:04027800c8020000b8
:020000040000fa
:04027c00c8020000b4
:020000040000fa
:04028000c8020000b0
:020000040000fa
:04028400c8020000ac
:020000040000fa
:04028800c8020000a8
:020000040000fa
:04028c00c8020000a4
:020000040000fa
:04029000c8020000a0
:020000040000fa
:04029400c80200009c
:020000040000fa
:04029800c802000098
:020000040000fa
:04029c00c802000094
:020000040000fa
:0402a000c802000090
:020000040000fa
:0402a400c80200008c
:020000040000fa
:0402a800c802000088
:020000040000fa
:0402ac00c802000084
:020000040000fa
:0402b000c802000080
:020000040000fa
:0402b400c80200007c
:020000040000fa
:0402b800c802000078
:020000040000fa
:0402bc00c802000074
:020000040000fa
:0402c000c802000070
:020000040000fa
:0402c400c80200006c
:020000040000fa
:0402c800c802000068
:020000040000fa
:0402cc00c802000064
:020000040000fa
:0402d000c802000060
:020000040000fa
:0402d400c80200005c
:020000040000fa
:0402d800c802000058
:020000040000fa
:0402dc00c802000054
:020000040000fa
:0402e000c802000050
:020000040000fa
:0402e400c80200004c
:020000040000fa
:0402e800c802000048
:020000040000fa
:0402ec00c802000044
:020000040000fa
:0402f000c802000040
:020000040000fa
:0402f400c80200003c
:020000040000fa
:0402f800c802000038
:020000040000fa
:0402fc00c802000034
:020000040000fa
:04030000c80200002f
:020000040000fa
:04030400c80200002b
:020000040000fa
:04030800c802000027
:020000040000fa
:04030c00c802000023
:020000040000fa
:04031000c80200001f
:020000040000fa
:04031400c80200001b
:020000040000fa
:04031800c802000017
:020000040000fa
:04031c00c802000013
:020000040000fa
:04032000c80200000f
:020000040000fa
:04032400c80200000b
:020000040000fa
:04032800c802000007
:020000040000fa
:04032c00c802000003
:020000040000fa
:04033000c8020000ff
:020000040000fa
:04033400c8020000fb
:020000040000fa
:04033800c8020000f7
:020000040000fa
:04033c00c8020000f3
:020000040000fa
:04034000c8020000ef
:020000040000fa
:04034400c8020000eb
:020000040000fa
:04034800c8020000e7
:020000040000fa
:04034c00c8020000e3
:020000040000fa
:04035000c8020000df
:020000040000fa
:04035400c8020000db
:020000040000fa
:04035800c8020000d7
:020000040000fa
:04035c00c8020000d3
:020000040000fa
:04036000c8020000cf
:020000040000fa
:04036400c8020000cb
:020000040000fa
:10040000ef8420000e7f24000e0188000000000011
:10041000000020000000e000020032000001200087
:1004200020028800140007005b0007000000e000c5
:1004300003003a00a0c220000100200002003700a3
:100440000000200001002000810f70000100320038
:1004500014000700000020000000e000020032004d
:100460000000020000000000680a02000000000016
:100470000040da000000fe004440a9000000200017
:100480000000e0000300320000002000a00188000e
:100490004440a800000006008a1f78008b1f7800e7
:1004a0000000060091018800800478000000eb0045
:1004b0001a003700e284440032a0b4009905ba0063
:1004c000e284440032a0b4009906ba00e2844400f9
:1004d00032a0b4000006eb00476fde00fd07b2005b
:1004e000636ce10003003a00ebff07000000eb0043
:1004f0000a003700606ce10004003a00005deb0088
:100500008b05e900fdff3e00040037006168e10053
:10051000010032000086eb000b00070019c7ba008b
:100520001905ba000e04e00003003a000a00e000da
:10053000e0ff3a0000000600fe07b2009e018800be
:100540008a047800f5ff3700395dba008b05e900b1
:100550000c003200295dba008b05e900080032006a
:100560000c00e00003003a00e284440032a0b40032
:10057000f5ff370019ddba008b05e900faff3a00f4
:100580008904e800e184440032a0b40000000600c1
:100590000040da000000fe000000050003f0a200a9
:1005a000889fbe008a9fbe008c1f7800fc00070059
:1005b000030133006450e1004f0032006420e10089
:1005c0005200320003826c0007003b000905d00096
:1005d0000306d000820f54000c065d0002003900b3
:1005e00002003200890178000306780085825500f8
:1005f00004003d000003fd008103fd008502ea00c8
:100600008b854200840f720002003b0060001000e6
:10061000e08018006011b8000005eb007a28e100c6
:100620000a00390006007800c75ddd00f707b20058
:10063000878075002d003700828171000a017800e3
:10064000610560008180d1000080d3008502e9004f
:10065000f9ff3b00060440008784480002003b008d
:1006600060041400e0841c000988a3000700320025
:100670008a81710082817100610164008904d10066
:100680000884d3008b05e800170037000978a30021
:1006900013003a000b00e000130034008b05e90062
:1006a0000804440089844c000a4474000978a300bb
:1006b0000d003a000b00e000070034008b05e90054
:1006c0000804440089844c0001003a000b0020001b
:1006d0000978a300f7ff32000001eb0002003700a9
:1006e000828171000a017800720007000cf0a700f7
:1006f00001f0a000bb0037006420e10002003a00d6
:10070000838f6c00bb0033000801be000200be00f6
:10071000b4003700889fbe008a9fbe008c1f7800ff
:100720009f000700a600330003866c006450e100c0
:100730002e0032006420e100330032006150e100fd
:100740002f0032006120e100310032008585550024
:10075000eb07b00009002000080420000500370066
:100760000804440089844c000a0031000603430059
:1007700087834b000001530081815b00f8ff330049
:100780000203be000800a0000804440089844c0055
:10079000f6ff3900c639dd00830173000100320025
:1007a000130020008904d1000884d3000998a30015
:1007b000050032000800a7000300a0008904d10052
:1007c0000884d3008b05e8008904d1000884d30095
:1007d0000001eb000281d2003600070001f0a10009
:1007e0000cf0a70001f0a0007e0037006420e100bb
:1007f000800032000801be000200be00f7ff370093
:100800006120e1007b0032006000b800f3ff370098
:100810000000200001f82700f0ff37000001be00b3
:100820004a0007000470a70003f0a1006509b100a9
:10083000160032000d0035006828e1000600350082
:10084000f0ff2f00f1ff27000300e00013003b0042
:1008500001002800000005000000400081804800e1
:100860008502e900fcff3a0008003700f88f4200db
:1008700002003c008000eb00000005008100d10078
:100880000080d3008502e800fcff3a000300e0008e
:1008900002003b0060001000e0801800000006002d
:1008a0004f89de0082017800890037006011b800ae
:1008b0009700370081002000618055000b003d004b
:1008c0000b00200061fe2f000100e1001d0034003c
:1008d00082817100610164008904d1000884d30021
:1008e0000000e800faff3a00710020006100640097
:1008f000030070000200600009003200610444003f
:10090000e0844c000988a500050032008b05e80052
:100910006808e10002003a008904d1000884d3008d
:10092000f20f20000258e10005003d00c75ddd0028
:10093000f907b20089807500080078000000060001
:100940000bf827008b00780000000500c70ade00c6
:10095000f107b200f50fb20008003200e1cf42000b
:10096000020032000170a00024000500810f700019
:10097000010032000408050044000500810f7000ea
:1009800002003a00140005008502e9000000400062
:1009900081c04800fcff3b000170a000240005005e
:1009a0000004be00e9ff07000003be000405be000e
:1009b0000200be00e5ff0700844f7500000006003e
:1009c0000200be006450e100050036006420e10032
:1009d000020036000968a30001003a000800be00ca
:1009e0000160a0004f0678004f05be004f04be0016
:1009f00000000600f0ff2f00f1ff2700f9ff37008d
:100a0000889fbe008a9fbe008c1f7800e4ff07000d
:100a1000ebff330003866c006450e10024003200d9
:100a20006420e100270032006150e1002200320022
:100a30006120e100210032008b854200eb07b1000c
:100a40000134b800003ab8000804420089844a0022
:100a5000013ab8000030b8008880400009014a001f
:100a6000040033000000400081804800020149007a
:100a70008b05e900c909dd00830170000100320027
:100a800013002000c814de004814dd004709de0012
:100a90001200b200c808de000884700085ff07005d
:100aa00001f0a1000cf0a70001f0a000cdff37007d
:100ab0006120e100cfff32000801be000200be004d
:100ac000f7ff37006150e100fcff3a00c9ff370033
:100ad000881f7800030478000300e00007003d0051
:100ae00060001000e080180060011900e08119002a
:100af00002003b0001f02d00030037000400070056
:100b000008f0a70001f0a0004f04780000000600e4
:100b1000889fbe008a9fbe000082700004027100a0
:100b200004827100260032000004be000200be00f4
:100b30006011b8006b092000950220000182cf00ef
:100b40000a0039000541b1000082cf0007003900da
:100b50000541b1000982cf00040039000541b10010
:100b60000882cf00010039000541b1000542520062
:100b7000120032000a003b008281710061016400b2
:100b80008100d1000080d3008984d3000884d30081
:100b90008b05e8000442e800f7ff3a000700370041
:100ba0000804440089844c0000004800818048000b
:100bb0008b05e9000442e900f9ff3a003dff070018
:0c0bc0004f05be004f04be000000060000
:020000040000fa
:100bcc000400fa000040eb002047980070c0b3000e
:100bdc00304798000041eb008000eb001000200033
:100bec00b40107000041eb008000eb001000200076
:100bfc00e001070000a82100610020003403070079
:100c0c0012c0b3008000eb0010002000d9010700d7
:100c1c0012c0b3008000eb0010002000a5010700fb
:100c2c00004b2000010020002903070010c0b30076
:100c3c00004f7800090037001e80fb000000e9001f
:100c4c004f00de00004078001e4fe8000004e0007a
:100c5c00020032000040eb00740037008000eb0013
:100c6c0010002000f30107000004e000f2ff320046
:100c7c0010c0b300004f7800090037001e80fb0045
:100c8c000000e9004f00de00004078001e4fe80035
:100c9c000004e000020032000040eb00630037006b
:100cac008000eb0010002000e20107000004e000cf
:100cbc00f2ff3a000040eb00104798005600370056
:100ccc0010c0b300004f7800090037001e80fb00f5
:100cdc000000e9004f00de00004078001e4fe800e5
:100cec000004e000020032000040eb004f0037002f
:100cfc008000eb0010002000ce0107000004e00093
:100d0c00f2ff32000032200001002000f002070048
:100d1c008000eb0010002000c60107000004e0007a
:100d2c000d003a003e4090000004e00006003a003e
:100d3c0070c0b300304798002e4090000040e8008f
:100d4c0020479800310037003e4090000040e900f9
:100d5c00304798002d00370010c0b300004f7800ca
:100d6c00090037001e80fb000000e9004f00de0088
:100d7c00004078001e4fe8000004e0000200320042
:100d8c000040eb00290037008000eb001000200031
:100d9c00a80107000004e000f2ff3a002e4090008a
:100dac000080fb00ae4090008180fb00828420001c
:100dbc00e2c0780001417800be4090008180fb00c9
:100dcc00130020008118dd00814078008140710003
:100ddc000141780081842000827078003e409000b0
:100dec000004e00006003a0070c0b30030479800e1
:100dfc002e4090000040e800204798000300370088
:100e0c003e4090000040e900304798001e409000a2
:100e1c000040e800104798009e40900070c2b3005c
:100e2c0080cf5000a6ff360010c0b3000080fa003f
:100e3c00000006000600fa00100798002107980031
:100e4c005fff0700004f78001e4078000004e000b0
:100e5c0002003a000040eb0048003700808420007c
:100e6c0090407800908420001040780080c04000b2
:100e7c00a08420001040780080c04000b084200086
:100e8c001040780000c0400010479800c08420003b
:100e9c00904078001e40900080cf5000020032003d
:100eac0020c0b3003500370080842000104078004b
:100ebc000080fb00c800dd0090842000104078000a
:100ecc000080fb0080804000f0ff27000080600065
:100edc00cf80de006ffe0700d2cc2c00c3dc2300d9
:100eec00c4fe07002e0190000089be00a0842000e3
:100efc00104078000004e00010003d00a0842000a9
:100f0c00104078000080fb00c800dd00b084200099
:100f1c00104078000080fb0000804000cf80de0095
:100f2c005cfe0700d2cc2c00c3dc2b00b1fe07000a
:100f3c001e0190000089be000f003700a084200025
:100f4c00104078000080fb00c800dd00b084200059
:100f5c00104078000080fb0000804000cf80de0055
:100f6c004cfe0700d2cc2c00c3dc2300a1fe0700f2
:100f7c001e0190000089be0010c0b3000080fa0072
:100f8c00000006001000fa00889fbe008a1f78003f
:100f9c005007980061079800720798000200200023
:100fac00832c24005e009000ee009000d6fd07001c
:100fbc0017fe070000007800004078000043b000e6
:100fcc00804078007e009000014878007e00900000
:100fdc000004e8007e009000104078008000fb00c8
:100fec00400620000088b9008000780000d42e0054
:100ffc0000804000cf80de0026fe07000001be000e
:10100c005e009000ee00900061fd070002002000e1
:10101c0003122400bcfd0700fdfd07000000780052
:10102c00004078000043b000004c78007e00900037
:10103c000085e8007e009000104078008000fb00e6
:10104c00400620000088b9008000780000d42e00f3
:10105c0000804000cf80de000efe07000001be00c5
:10106c005e009000ee00900049fd07000004be00f9
:10107c007e0090000000e800104078000000fb00ab
:10108c006a00b90000007800001eb100cf80de00bd
:10109c0000fe07000001be000800be003cfd07007a
:1010ac00dbfd070000007800004078000043b00032
:1010bc00004d78007e00900063004000e1c2b30058
:1010cc00014878007e009000640540007e0090008e
:1010dc00104078008000fb00400620000088b9001a
:1010ec008000780000d42e0000804000cf80de000d
:1010fc00e8fd07000001be005e009000ee009000cd
:10110c0023fd07000004be007e0090000000e800f4
:10111c00104078000000fb006a00b9000000780065
:10112c00001eb100cf80de00dafd07000001be001a
:10113c000800be0016fd07000004be007e009000f3
:10114c000080e800104078000000fb000003b100b4
:10115c00cf80de00cffd07000001be000800be00fe
:10116c000bfd0700020020000312240021fe0700e3
:10117c00a7fd070000007800004078000043b00095
:10118c00004d78007e009000640040001040780014
:10119c000000fb0001fd2f00010f40007e009000bd
:1011ac00104078008000fb00400620000088b90049
:1011bc008000780000d42e0000804000cf80de003c
:1011cc00b4fd07000001be005e009000ee00900030
:1011dc00effc07000004be007e0090000000e80059
:1011ec00104078000000fb006a00b9000000780095
:1011fc00001eb100cf80de00a6fd07000001be007e
:10120c000800be00e2fc07000004be007e00900057
:10121c000080e800104078000000fb000003b100e3
:10122c00cf80de009bfd07000001be000800be0061
:10123c00d7fc070010079800210798000200200037
:10124c00031224001e009000ae009000e9fd070080
:10125c000004be001e007800cf80de008dfd07006c
:10126c000001be000800be00c9fc07003007980052
:10127c00410798007e0090006504400002002000a9
:10128c00031224003e009000ce009000d9fd070010
:10129c005ffd070000007800004078000043b000bc
:1012ac00004c78004f0578004f04be000080fa0017
:1012bc00000006000600fa00000f780011079800e5
:1012cc00424798001e0078000000e0000300320046
:1012dc00e10f500013003200240037004e40900004
:1012ec008080fb001e0090000008dd000080ea00fa
:1012fc0080007800001680000080600000168800d6
:10130c004e4090008080fb001e0090000008dd0025
:10131c008000780000168000010070000016880024
:10132c00120037004e4090008080fb001e009000a1
:10133c000008dd000080ea00800078004016800084
:10134c0000806000401688004e4090008080fb00ba
:10135c001e0090000008dd00800078004016800020
:10136c000100700040168800000000000080fa00a8
:10137c00000006000600fa00000f78001107980024
:10138c00424798001e0078000000e0000300320085
:10139c00e10f500013003200240037004e40900043
:1013ac008080fb001e0090000008dd000080ea0039
:1013bc0080007800201680000080600020168800d5
:1013cc004e4090008080fb001e0090000008dd0065
:1013dc008000780020168000010070002016880024
:1013ec00120037004e4090008080fb001e009000e1
:1013fc000008dd000080ea008000780060168000a4
:10140c0000806000601688004e4090008080fb00d9
:10141c001e0090000008dd0080007800601680003f
:10142c000100700060168800000000000080fa00c7
:10143c00000006000400fa00000f78001107980065
:10144c001e0078000000e00003003200e10f5000a5
:10145c000d003200180037001e0090001100200013
:10146c000008dd008000780010168000008060000d
:10147c0000f0a7000000ea000000ea004f00de00c8
:10148c00004078000d0037001e0090001100200075
:10149c000008dd008000780050168000008060009d
:1014ac0000f0a7000000ea000000ea004f00de0098
:1014bc000040780001003700000037000080fa007f
:1014cc00000006000000fa009e0007004f00070015
:1014dc000040eb00800007008000eb00f0fc0700f0
:1014ec00323323003305240042fd070002002c0098
:1014fc00f377240084fc07006266260063ee230069
:10150c0081fc070002002000832c240039fd070019
:10151c00204088003140880010c0b3006e000700e6
:10152c008000eb00defc070032332300330524007f
:10153c0030fd070002002c00f377240072fc07003a
:10154c0090408800a140880040c0b30062000700b2
:10155c008000eb00d2fc070032332300330524005b
:10156c0024fd070002002c00f377240066fc070022
:10157c0000418800114188002040800031408000eb
:10158c00828020007ffe07008080200094000700ee
:10159c0090408000a14080006281200079fe07000d
:1015ac00608120008e000700004180001141800006
:1015bc004282200073fe0700408220008800070052
:1015cc00c1832000e08220001afe070070418000d9
:1015dc0081418000228320006afe070020832000c6
:1015ec007f000700e0418000f14180000284200070
:1015fc0064fe0700008420007900070000482800e2
:10160c00e1012000b2000700b1ff37000000fa0032
:10161c002143a80011198000f0cf2f00008060003a
:10162c001019880011198000f0ff21000080600063
:10163c001019880020c0b30024e3b7002c23ef005e
:10164c0001198000f0cf2f00008060000090a000f6
:10165c00001988000080eb00601988002c03a90099
:10166c002c23a9002c83a90001198000000e200056
:10167c00010070000019880021198000f00f2e0065
:10168c0000806000201988002623ef002823ef003b
:10169c0021e3a8000040eb000080fa0000000600e7
:1016ac000000fa002023a800007d2000010020008b
:1016bc00870007002023a9000080fa000000060024
:1016cc000000fa00001980000040780061406000c2
:1016dc000080fa00000006000200fa00004f7800bb
:1016ec009e4078007fc060000080fb007f0060009f
:1016fc004219800001fe2f00810061000100700082
:10170c0040198800e6ff070000000000ecff07000e
:10171c00e14f5000fdff3a00060007000080fa0080
:10172c00000006000000fa002003a9000080fa0067
:10173c00000006000000fa00001880000080fa008b
:10174c00000006000000fa002002a9000111800030
:10175c0090ff2f00008060000011880020a2a900db
:10176c002062a900400d20004011880021e2a80051
:10177c002342a8002135800000fe2f00008060006d
:10178c00c000b3002035880021358000f00f2e00fa
:10179c008080600000d0200001007000203588009f
:1017ac007136800000fe2f00008060003000b30016
:1017bc007036880071368000f00f2e0000806000bb
:1017cc0000a0a0007036880040832000010020009b
:1017dc003f0007000040eb000080fa00000006000c
:1017ec000200fa00000f7800040037001e00780099
:1017fc00104078001e0fe800060007001e0078005d
:10180c00104078000004e000f8ff3a000080fa0075
:10181c00000006000200fa00004f78001e00fb00da
:10182c00201188000000000021048000000021002d
:10183c00008060000000e000fbff32008580a90002
:08184c000080fa000000060014
:020000040000fa
:1018540002080000460000000200000054000000de
:1018640000000000303030002e30300000004c000a
:10187400000000000000300030302e003030000046
:10188400005300000000000000303000302e300013
:10189400300000004800000000000000303030003c
:1018a4002e30300000004400000000000000300032
:1018b40030302e003030000000000000000800002e
:1018c40002000000000000004808000006000000bc
:0818d40000000000000000000c
:020000040000fa
:1018dc00f03fb1000180b10006003500ee030900b5
:1018ec0000000000403fb1000180b100fbff3d0053
:1018fc001000b000203fb00002003500008009004d
:08190c000000000000000600cd
:020000040000fa
:0200000401f009
:04000000ffff0000fe
:020000040000fa
:0200000401f009
:04000400ffff0000fa
:020000040000fa
:0200000401f009
:04000800ffff0000f6
:020000040000fa
:0200000401f009
:04000c00830000006d
:020000040000fa
:0200000401f009
:04001000a400000048
:020000040000fa
:0200000401f009
:04001400df00000009
:020000040000fa
:0200000401f009
:04001800f7000000ed
:020000040000fa
:0200000401f009
:04001c00dfff000002
:00000001FF
