:020000040000fa
:080000000002040000000000f2
:020000040000fa
:04000800c80200002a
:020000040000fa
:04000c00c802000026
:020000040000fa
:04001000c802000022
:020000040000fa
:04001400c80200001e
:020000040000fa
:04001800c80200001a
:020000040000fa
:04001c00c802000016
:020000040000fa
:04002000c802000012
:020000040000fa
:04002400c80200000e
:020000040000fa
:04002800c80200000a
:020000040000fa
:04002c00c802000006
:020000040000fa
:04003000c802000002
:020000040000fa
:04003400c8020000fe
:020000040000fa
:04003800c8020000fa
:020000040000fa
:04003c00c8020000f6
:020000040000fa
:04004000c8020000f2
:020000040000fa
:04004400c8020000ee
:020000040000fa
:04004800c8020000ea
:020000040000fa
:04004c00c8020000e6
:020000040000fa
:04005000c8020000e2
:020000040000fa
:04005400c8020000de
:020000040000fa
:04005800c8020000da
:020000040000fa
:04005c00c8020000d6
:020000040000fa
:04006000c8020000d2
:020000040000fa
:04006400c8020000ce
:020000040000fa
:04006800c8020000ca
:020000040000fa
:04006c00c8020000c6
:020000040000fa
:04007000c8020000c2
:020000040000fa
:04007400c8020000be
:020000040000fa
:04007800c8020000ba
:020000040000fa
:04007c00c8020000b6
:020000040000fa
:04008000c8020000b2
:020000040000fa
:04008400c8020000ae
:020000040000fa
:04008800c8020000aa
:020000040000fa
:04008c00c8020000a6
:020000040000fa
:04009000c8020000a2
:020000040000fa
:04009400c80200009e
:020000040000fa
:04009800c80200009a
:020000040000fa
:04009c00c802000096
:020000040000fa
:0400a000c802000092
:020000040000fa
:0400a400c80200008e
:020000040000fa
:0400a800c80200008a
:020000040000fa
:0400ac00c802000086
:020000040000fa
:0400b000c802000082
:020000040000fa
:0400b400c80200007e
:020000040000fa
:0400b800c80200007a
:020000040000fa
:0400bc00c802000076
:020000040000fa
:0400c000c802000072
:020000040000fa
:0400c400c80200006e
:020000040000fa
:0400c800c80200006a
:020000040000fa
:0400cc00c802000066
:020000040000fa
:0400d000c802000062
:020000040000fa
:0400d400c80200005e
:020000040000fa
:0400d800c80200005a
:020000040000fa
:0400dc00c802000056
:020000040000fa
:0400e000c802000052
:020000040000fa
:0400e400c80200004e
:020000040000fa
:0400e800c80200004a
:020000040000fa
:0400ec00c802000046
:020000040000fa
:0400f000c802000042
:020000040000fa
:0400f400c80200003e
:020000040000fa
:0400f800c80200003a
:020000040000fa
:0400fc00c802000036
:020000040000fa
:04010000c802000031
:020000040000fa
:04010400c80200002d
:020000040000fa
:04010800c802000029
:020000040000fa
:04010c00c802000025
:020000040000fa
:04011000c802000021
:020000040000fa
:04011400c80200001d
:020000040000fa
:04011800c802000019
:020000040000fa
:04011c00c802000015
:020000040000fa
:04012000c802000011
:020000040000fa
:04012400c80200000d
:020000040000fa
:04012800c802000009
:020000040000fa
:04012c00c802000005
:020000040000fa
:04013000c802000001
:020000040000fa
:04013400c8020000fd
:020000040000fa
:04013800c8020000f9
:020000040000fa
:04013c00c8020000f5
:020000040000fa
:04014000c8020000f1
:020000040000fa
:04014400c8020000ed
:020000040000fa
:04014800c8020000e9
:020000040000fa
:04014c00c8020000e5
:020000040000fa
:04015000c8020000e1
:020000040000fa
:04015400c8020000dd
:020000040000fa
:04015800c8020000d9
:020000040000fa
:04015c00c8020000d5
:020000040000fa
:04016000c8020000d1
:020000040000fa
:04016400c8020000cd
:020000040000fa
:04020800c802000028
:020000040000fa
:04020c00c802000024
:020000040000fa
:04021000c802000020
:020000040000fa
:04021400c80200001c
:020000040000fa
:04021800c802000018
:020000040000fa
:04021c00c802000014
:020000040000fa
:04022000c802000010
:020000040000fa
:04022400c80200000c
:020000040000fa
:04022800c802000008
:020000040000fa
:04022c00c802000004
:020000040000fa
:04023000c802000000
:020000040000fa
:04023400c8020000fc
:020000040000fa
:04023800c8020000f8
:020000040000fa
:04023c00c8020000f4
:020000040000fa
:04024000c8020000f0
:020000040000fa
:04024400c8020000ec
:020000040000fa
:04024800c8020000e8
:020000040000fa
:04024c00c8020000e4
:020000040000fa
:04025000c8020000e0
:020000040000fa
:04025400c8020000dc
:020000040000fa
:04025800c8020000d8
:020000040000fa
:04025c00c8020000d4
:020000040000fa
:04026000c8020000d0
:020000040000fa
:04026400c8020000cc
:020000040000fa
:04026800c8020000c8
:020000040000fa
:04026c00c8020000c4
:020000040000fa
:04027000c8020000c0
:020000040000fa
:04027400c8020000bc
:020000040000fa
:04027800c8020000b8
:020000040000fa
:04027c00c8020000b4
:020000040000fa
:04028000c8020000b0
:020000040000fa
:04028400c8020000ac
:020000040000fa
:04028800c8020000a8
:020000040000fa
:04028c00c8020000a4
:020000040000fa
:04029000c8020000a0
:020000040000fa
:04029400c80200009c
:020000040000fa
:04029800c802000098
:020000040000fa
:04029c00c802000094
:020000040000fa
:0402a000c802000090
:020000040000fa
:0402a400c80200008c
:020000040000fa
:0402a800c802000088
:020000040000fa
:0402ac00c802000084
:020000040000fa
:0402b000c802000080
:020000040000fa
:0402b400c80200007c
:020000040000fa
:0402b800c802000078
:020000040000fa
:0402bc00c802000074
:020000040000fa
:0402c000c802000070
:020000040000fa
:0402c400c80200006c
:020000040000fa
:0402c800c802000068
:020000040000fa
:0402cc00c802000064
:020000040000fa
:0402d000c802000060
:020000040000fa
:0402d400c80200005c
:020000040000fa
:0402d800c802000058
:020000040000fa
:0402dc00c802000054
:020000040000fa
:0402e000c802000050
:020000040000fa
:0402e400c80200004c
:020000040000fa
:0402e800c802000048
:020000040000fa
:0402ec00c802000044
:020000040000fa
:0402f000c802000040
:020000040000fa
:0402f400c80200003c
:020000040000fa
:0402f800c802000038
:020000040000fa
:0402fc00c802000034
:020000040000fa
:04030000c80200002f
:020000040000fa
:04030400c80200002b
:020000040000fa
:04030800c802000027
:020000040000fa
:04030c00c802000023
:020000040000fa
:04031000c80200001f
:020000040000fa
:04031400c80200001b
:020000040000fa
:04031800c802000017
:020000040000fa
:04031c00c802000013
:020000040000fa
:04032000c80200000f
:020000040000fa
:04032400c80200000b
:020000040000fa
:04032800c802000007
:020000040000fa
:04032c00c802000003
:020000040000fa
:04033000c8020000ff
:020000040000fa
:04033400c8020000fb
:020000040000fa
:04033800c8020000f7
:020000040000fa
:04033c00c8020000f3
:020000040000fa
:04034000c8020000ef
:020000040000fa
:04034400c8020000eb
:020000040000fa
:04034800c8020000e7
:020000040000fa
:04034c00c8020000e3
:020000040000fa
:04035000c8020000df
:020000040000fa
:04035400c8020000db
:020000040000fa
:04035800c8020000d7
:020000040000fa
:04035c00c8020000d3
:020000040000fa
:04036000c8020000cf
:020000040000fa
:04036400c8020000cb
:020000040000fa
:100400002f8620000e7f24000e01880000000000cf
:10041000000020000000e000020032000001200087
:1004200020028800140007005b0007000000e000c5
:1004300003003a0000c42000010020000200370041
:100440000000200001002000810f70000100320038
:1004500014000700000020000000e000020032004d
:1004600000000200000000007c0902000000000003
:100470000040da000000fe004440a90060002000b7
:100480000000e0000300320000002000a00188000e
:100490004440a800000006008a1f78008b1f7800e7
:1004a0000000060091018800800478000000eb0045
:1004b0001a003700e284440032a0b4009905ba0063
:1004c000e284440032a0b4009906ba00e2844400f9
:1004d00032a0b4000006eb00476fde00fd07b2005b
:1004e000636ce10003003a00ebff07000000eb0043
:1004f0000a003700606ce10004003a00005deb0088
:100500008b05e900fdff3e00040037006168e10053
:10051000010032000086eb000b00070019c7ba008b
:100520001905ba000e04e00003003a000a00e000da
:10053000e0ff3a0000000600fe07b2009e018800be
:100540008a047800f5ff3700395dba008b05e900b1
:100550000c003200295dba008b05e900080032006a
:100560000c00e00003003a00e284440032a0b40032
:10057000f5ff370019ddba008b05e900faff3a00f4
:100580008904e800e184440032a0b40000000600c1
:100590000040da000000fe000000050003f0a200a9
:1005a000889fbe008a9fbe008c1f7800fe00070057
:1005b000050133006450e1004f0032006420e10087
:1005c0005200320003826c0007003b000905d00096
:1005d0000306d000820f54000c065d0002003900b3
:1005e00002003200890178000306780085825500f8
:1005f00004003d000003fd008103fd008502ea00c8
:100600008b854200840f720002003b0060001000e6
:10061000e08018006011b8000005eb007a28e100c6
:100620000a00390006007800c75ddd00f707b20058
:10063000878075002d003700828171000a017800e3
:10064000610560008180d1000080d3008502e9004f
:10065000f9ff3b00060440008784480002003b008d
:1006600060041400e0841c000988a3000700320025
:100670008a81710082817100610164008904d10066
:100680000884d3008b05e800170037000978a30021
:1006900013003a000b00e000130034008b05e90062
:1006a0000804440089844c000a4474000978a300bb
:1006b0000d003a000b00e000070034008b05e90054
:1006c0000804440089844c0001003a000b0020001b
:1006d0000978a300f7ff32000001eb0002003700a9
:1006e000828171000a017800740007000cf0a700f5
:1006f00001f0a000bd0037006420e10002003a00d4
:10070000838f6c00bd0033000801be000200be00f4
:10071000b6003700889fbe008a9fbe008c1f7800fd
:10072000a1000700a800330003866c006450e100bc
:100730002e0032006420e100330032006150e100fd
:100740002f0032006120e100310032008585550024
:10075000eb07b00009002000080420000500370066
:100760000804440089844c000a0031000603430059
:1007700087834b000001530081815b00f8ff330049
:100780000203be000800a0000804440089844c0055
:10079000f6ff3900c639dd00830173000100320025
:1007a000130020008904d1000884d3000998a30015
:1007b000050032000800a7000300a0008904d10052
:1007c0000884d3008b05e8008904d1000884d30095
:1007d0000001eb000281d2003800070001f0a10007
:1007e0000cf0a70001f0a000800037006420e100b9
:1007f000820032000801be000200be00f7ff370091
:100800006120e1007d0032006000b800f3ff370096
:100810000000200001f82700f0ff3700140020003e
:10082000ad0037000001be004a0007000470a700b9
:1008300003f0a1006509b100160032000d0035007b
:100840006828e10006003500f0ff2f00f1ff2700c7
:100850000300e00013003b00010028000000050039
:1008600000004000818048008502e900fcff3a005a
:1008700008003700f88f420002003c008000eb00c7
:10088000000005008100d1000080d3008502e8004f
:10089000fcff3a000300e00002003b006000100093
:1008a000e0801800000006004f89de008201780019
:1008b000a40037006011b800b200370081002000aa
:1008c000618055000b003d000b00200061fe2f00f1
:1008d0000100e1001d0034008281710061016400ab
:1008e0008904d1000884d3000000e800faff3a0030
:1008f00071002000610064000300700002006000cd
:100900000900320061044400e0844c000988a5001d
:10091000050032008b05e8006808e10002003a009b
:100920008904d1000884d300f20f20000258e100ae
:1009300005003d00c75ddd00f907b2008980750044
:1009400008007800000006000bf827008b007800f4
:1009500000000500c70ade00f107b200f50fb20083
:1009600008003200e1cf4200020032000170a00016
:1009700024000500810f700001003200040805000a
:1009800044000500810f700002003a0014000500c9
:100990008502e9000000400081c04800fcff3b00e8
:1009a0000170a000240005000004be00e9ff07005c
:1009b0000003be000405be000200be00e5ff070004
:1009c000844f7500000006000200be006450e10084
:1009d000050036006420e100020036000968a3002b
:1009e00001003a000800be000160a0004f06780038
:1009f0004f05be004f04be0000000600f0ff2f00b0
:100a0000f1ff2700f9ff3700889fbe008a9fbe00d4
:100a10008c1f7800e4ff0700ebff330003866c00b7
:100a20006450e100240032006420e100270032001d
:100a30006150e100220032006120e100210032001b
:100a40008b854200eb07b1000134b800003ab800d2
:100a50000804420089844a00013ab8000030b80016
:100a60008880400009014a00040033000000400073
:100a700081804800020149008b05e900c909dd00b9
:100a8000830170000100320013002000c814de0052
:100a90004814dd004709de001200b200c808de007d
:100aa0000884700085ff070001f0a1000cf0a7008a
:100ab00001f0a000cdff37006120e100cfff320040
:100ac0000801be000200be00f7ff37006150e100e0
:100ad000fcff3a00c9ff3700889fbe008a9fbe0016
:100ae000841f7800b0ff07004f007800110033002a
:100af000f0ff2f00838f6c0006003b0004056500ab
:100b00000a00a7000800370009f0a6001000200026
:100b100008003700820f5400838f5c000300390007
:100b20001000200001003e000000200009f0a70096
:100b30000000ea004f05be004f04be000000e000c8
:100b400000000600881f7800030478000300e0001e
:100b500007003d0060001000e080180060011900ef
:100b6000e081190002003b0001f02d000300370076
:100b70000400070008f0a70001f0a0004f0478006f
:100b800000000600889fbe008a9fbe0000827000a1
:100b90000402710004827100260032000004be00cd
:100ba0000200be006011b8006b0920009502200011
:100bb0000182cf000a0039000541b1000082cf0058
:100bc000070039000541b1000982cf000400390057
:100bd0000541b1000882cf00010039000541b10094
:100be00005425200120032000a003b00828171006f
:100bf000610164008100d1000080d3008984d300aa
:100c00000884d3008b05e8000442e800f7ff3a00af
:100c1000070037000804440089844c0000004800a5
:100c2000818048008b05e9000442e900f9ff3a00a1
:100c300022ff07004f05be004f04be000000060063
:020000040000fa
:0c0c4000496e00006974000031000000e3
:020000040000fa
:100c4c000600fa00889fbe008a1f7800008fbe0045
:100c5c00220798002e0090000004e80002002000fb
:100c6c00a34724001e00be00a7fe0700eafe0700f3
:100c7c0000007800004078000043b000004c780081
:100c8c002e0090000084e8002e0090000000e80088
:100c9c00104078000000fb0001fd2f008080400018
:100cac00803e20000088b90000007800cf80de0074
:100cbc00fafe07000001be001e00be0034fe070055
:100ccc0002002000832c24008ffe0700d2fe0700b8
:100cdc0000007800004078000043b000004c780021
:100cec002e009000630540002e0090000000e800ec
:100cfc00104078000000fb0001fd2f0080804000b8
:100d0c00803e20000088b90000007800cf80de0013
:100d1c00e2fe07000001be001e00be001cfe070024
:100d2c000004be002e0090000080e8001040780007
:100d3c008000fb00400620000088b900800078008d
:100d4c0000d42e0000804000cf80de00d3fe0700d0
:100d5c000001be000800be000dfe070002002000ce
:100d6c000312240068fe0700abfe070000007800a9
:100d7c00004078000043b000004d78002e00900039
:100d8c00640540002e0090000000e8001040780040
:100d9c000000fb0001fd2f0080804000803e200001
:100dac000088b90000007800cf80de00bbfe070091
:100dbc000001be001e00be00f5fd07000004be00d1
:100dcc002e0090000080e800104078008000fb00ae
:100ddc00400620000088b9008000780000d42e0066
:100dec0000804000cf80de00acfe07000001be009a
:100dfc000800be00e6fd07000004be002e009000b7
:100e0c0063004000104078000000fb006a00b9004d
:100e1c0000007800001eb100cf80de009ffe0700ae
:100e2c000001be000800be00d9fd07007afe0700d5
:100e3c0000007800004078000043b000004d7800be
:100e4c002e00900065004000e1c2b300014878001c
:100e5c002e009000660540002e0090000000e80077
:100e6c00104078000000fb0001fd2f008080400046
:100e7c00803e20000088b90000007800cf80de00a2
:100e8c0086fe07000001be001e00be00c0fd07006c
:100e9c000004be002e0090000080e8001040780096
:100eac008000fb00400620000088b900800078001c
:100ebc0000d42e0000804000cf80de0077fe0700bb
:100ecc000001be000800be00b1fd07000004be001a
:100edc002e00900063004000104078000000fb00e2
:100eec006a00b90000007800001eb100cf80de005f
:100efc006afe07000001be000800be00a4fd07004a
:100f0c000004be002e0090006400400010407800e9
:100f1c000000fb000003b100cf80de005ffe070085
:100f2c000001be000800be0099fd07000200200071
:100f3c0003122400b1fe070037fe07000000780002
:100f4c00004078000043b000004d78004f05780059
:100f5c004f04be000080fa00000006000400fa00f6
:100f6c000040eb002047980070c0b3003047980059
:100f7c00c822a900cc22a90000a8210061002000f1
:100f8c0064020700cc22a800c822a800004b200055
:100f9c00010020005f02070010c0b300004f780072
:100fac00090037001e80fb000000e9004f00de0046
:100fbc00004078001e4fe8000004e0000200320000
:100fcc000040eb006f00370050168000620060009c
:100fdc000000e000f3ff320010c0b300004f7800b7
:100fec00090037001e80fb000000e9004f00de0006
:100ffc00004078001e4fe8000004e00002003200c0
:10100c000040eb005f00370050168000620060006b
:10101c000000e000f3ff3a000040eb00104798009e
:10102c005300370010c0b300004f780009003700a0
:10103c001e80fb000000e9004f00de00004078003d
:10104c001e4fe8000004e000020032000040eb00fc
:10105c004c00370050168000620060000000e00079
:10106c00f3ff3200003220000100200029020700ab
:10107c0050168000620060000000e0000d003a0095
:10108c003e4090000004e00006003a0070c0b3003f
:10109c00304798002e4090000040e8002047980010
:1010ac00300037003e4090000040e9003047980087
:1010bc002c00370010c0b300004f78000900370037
:1010cc001e80fb000000e9004f00de0000407800ad
:1010dc001e4fe8000004e000020032000040eb006c
:1010ec002800370050168000620060000000e0000d
:1010fc00f3ff3a002e4090000080fb00ae409000c1
:10110c008180fb00c2852000e2c07800014178009c
:10111c00be4090008180fb00130020008118dd0090
:10112c00814078008140710001417800c185200028
:10113c00827078003e4090000004e00006003a0007
:10114c0070c0b300304798002e4090000040e8007b
:10115c0020479800030037003e4090000040e90013
:10116c00304798001e4090000040e800104798005f
:10117c009e40900070c2b30080cf5000a9ff360093
:10118c0010c0b3000080fa00000006000600fa0050
:10119c00100798002107980070ff0700004f780097
:1011ac001e407800e14f5000020032001e407800d3
:1011bc001e003700c085200090407800d0852000ac
:1011cc001040780080c04000e0852000104078007e
:1011dc0080c04000f08520001040780000c0400026
:1011ec001047980000862000904078001e40900028
:1011fc0080cf50000200320020c0b3000b0037003b
:10120c00c0852000104078008080fb002e009000ec
:10121c0001087800e0852000104078008080fb00f9
:10122c001e0090000108780010c0b3000080fa0086
:10123c00000006000400fa00881f7800008fbe0032
:10124c0018c0b30052b82e0013fd23001e00be00c0
:10125c006ffd07000000e000010035000044eb00ca
:10126c000804e0000300320000802500515e2400d9
:10127c001b00370018c0b300020020000303240039
:10128c001e00be0062fd07000000e00001003500fa
:10129c000044eb000804e00009003200523a25003b
:1012ac00e35024001e00be00d4fd07000001be0068
:1012bc0000802500515e2400b5fc070008003700b3
:1012cc0042922400a33124001e00be00cbfd070077
:1012dc000001be0000002000f13f2400acfc070020
:1012ec004f0478000080fa00000006000000fa00ad
:1012fc002d010700de0007000040eb000f01070086
:10130c008000eb0068fd0700323323003305240016
:10131c00bafd070002002c00f3772400fafc07004a
:10132c006266260063ee2300f7fc07000200200033
:10133c00832c2400b1fd0700204088003140880038
:10134c0010c0b300fd0007008000eb0056fd070045
:10135c003233230033052400a8fd070002002c00c3
:10136c00f3772400e8fc0700b2ff0700b0408800c8
:10137c00c140880020c0b300f00007008000eb00e3
:10138c0049fd070032332300330524009bfd070081
:10139c0002002c00f3772400dbfc0700404188009e
:1013ac005141880020408000314080008280200024
:1013bc0023fe0700b0408000c1408000a2812000c5
:1013cc001ffe07004041800051418000c282200076
:1013dc001bfe0700a1832000c08320006bff0700c9
:1013ec00634060000080fb0063006000c24180002d
:1013fc00c1ff2f008100610001007000c041880016
:10140c00e04180008000eb0027fd070012852000e2
:10141c000bfe0700d04180008000eb0022fd07008e
:10142c006284200006fe070080802000f700070081
:10143c00a0812000f5000700c0822000f300070007
:10144c0010852000f100070060842000ef000700e9
:10145c0000d02200111320002e010700a6ff370038
:10146c000600fa00000f7800110798004247980018
:10147c001e0078000000e00003003200e10f500075
:10148c0013003200240037004e4090008080fb0097
:10149c001e0090000008dd000080ea00800078004b
:1014ac000016800000806000001688004e409000fe
:1014bc008080fb001e0090000008dd00800078009a
:1014cc000016800001007000001688001200370022
:1014dc004e4090008080fb001e0090000008dd0054
:1014ec000080ea00800078004016800000806000d8
:1014fc00401688004e4090008080fb001e0090003b
:10150c000008dd00800078004016800001007000ab
:10151c0040168800000000000080fa000000060061
:10152c000600fa00000f7800110798004247980057
:10153c001e0078000000e00003003200e10f5000b4
:10154c0013003200240037004e4090008080fb00d6
:10155c001e0090000008dd000080ea00800078008a
:10156c001016800000806000201688004e4090000d
:10157c008080fb001e0090000008dd0080007800d9
:10158c001016800001007000201688001200370031
:10159c004e4090008080fb001e0090000008dd0093
:1015ac000080ea0080007800501680000080600007
:1015bc00601688004e4090008080fb001e0090005a
:1015cc000008dd00800078005016800001007000db
:1015dc0060168800000000000080fa000000060081
:1015ec000400fa00000f7800110798001e00780024
:1015fc000000e00003003200e10f50000d0032004b
:10160c00180037001e009000110020000008dd00bb
:10161c0080007800101680000080600000f0a700a9
:10162c000000ea000000ea004f00de0000407800f5
:10163c000d0037001e009000110020000008dd0096
:10164c0080007800501680000080600000f0a70039
:10165c000000ea000000ea004f00de0000407800c5
:10166c00010037000040eb000080fa00000006008b
:10167c000000fa002143a80011198000f0cf2f00c0
:10168c00008060001019880011198000f0ff210003
:10169c00008060001019880020c0b30024e3b7005c
:1016ac002c23ef0001198000f0cf2f000080600088
:1016bc000090a000001988000080eb0060198800e1
:1016cc002c03a9002c23a9002c43a900011980008c
:1016dc00000e200001007000001988002119800004
:1016ec00f00f2e0000806000201988002623ef00e8
:1016fc002823ef0021e3a8000040eb000080fa0053
:10170c00000006000000fa002023a800007d200045
:10171c00010020007f0007002023a9000080fa00b0
:10172c00000006000000fa0000198000004078005c
:10173c00614060000080fa00000006000200fa0020
:10174c00004f78009e4078007fc060000080fb0056
:10175c007f0060004219800001fe2f0081006100b3
:10176c000100700040198800e6ff0700000000002f
:10177c00ecff0700e14f5000fdff3a0006000700a8
:10178c000080fa00000006000000fa002003a90007
:10179c000080fa00000006000000fa00001880002b
:1017ac000080fa00000006000000fa002002a900e8
:1017bc000111800090ff2f00008060000011880054
:1017cc0020a2a9002062a900100820004011880066
:1017dc0021e2a8002342a8004136800000fe2f0021
:1017ec00008060003000b300403688004083200049
:1017fc0001002000470007000062280003000700da
:10180c000040eb000080fa00000006000200fa0025
:10181c00000f7800040037001e007800104078009c
:10182c001e0fe800060007001e007800104078002c
:10183c000004e000f8ff3a000080fa000000060007
:10184c000200fa00004f78001e00fb0020118800f7
:10185c0000000000210480000000210000806000d6
:10186c000000e000fbff32008580a9000080fa0038
:04187c000000060062
:020000040000fa
:10188000020800005a0000000200000000000000f2
:10189000000000003130300030302e0030300d00bc
:1018a0000a0000000000000000000000323030009c
:1018b00030302e0030300d000a0000000300000020
:1018c000000000003330300030302e0030300d008a
:1018d0000a000000000000000000000000000000fe
:1018e000000000000000350030303000302e3000a5
:1018f000300d0a0000343000303030002e3030001f
:101900000d0a0000000800000200000000000000b6
:101910005c0800000600000000000000000000005d
:020000040000fa
:10192000f03fb1000180b10006003500ee03090070
:1019300000000000403fb1000180b100fbff3d000e
:101940001000b000203fb000020035000080090008
:08195000000000000000060089
:020000040000fa
:0200000401f009
:04000000ffff0000fe
:020000040000fa
:0200000401f009
:04000400ffff0000fa
:020000040000fa
:0200000401f009
:04000800ffff0000f6
:020000040000fa
:0200000401f009
:04000c00820000006e
:020000040000fa
:0200000401f009
:04001000a400000048
:020000040000fa
:0200000401f009
:04001400df00000009
:020000040000fa
:0200000401f009
:04001800f7000000ed
:020000040000fa
:0200000401f009
:04001c00deff000003
:00000001FF
